{
  "contractName": "PNSRegistry",
  "abi": [
    {
      "inputs": [],
      "stateMutability": "nonpayable",
      "type": "constructor"
    },
    {
      "anonymous": false,
      "inputs": [
        {
          "indexed": true,
          "internalType": "address",
          "name": "owner",
          "type": "address"
        },
        {
          "indexed": true,
          "internalType": "address",
          "name": "approved",
          "type": "address"
        },
        {
          "indexed": true,
          "internalType": "uint256",
          "name": "tokenId",
          "type": "uint256"
        }
      ],
      "name": "Approval",
      "type": "event"
    },
    {
      "anonymous": false,
      "inputs": [
        {
          "indexed": true,
          "internalType": "address",
          "name": "owner",
          "type": "address"
        },
        {
          "indexed": true,
          "internalType": "address",
          "name": "operator",
          "type": "address"
        },
        {
          "indexed": false,
          "internalType": "bool",
          "name": "approved",
          "type": "bool"
        }
      ],
      "name": "ApprovalForAll",
      "type": "event"
    },
    {
      "anonymous": false,
      "inputs": [
        {
          "indexed": true,
          "internalType": "address",
          "name": "previousOwner",
          "type": "address"
        },
        {
          "indexed": true,
          "internalType": "address",
          "name": "newOwner",
          "type": "address"
        }
      ],
      "name": "OwnershipTransferred",
      "type": "event"
    },
    {
      "anonymous": false,
      "inputs": [
        {
          "indexed": true,
          "internalType": "address",
          "name": "from",
          "type": "address"
        },
        {
          "indexed": true,
          "internalType": "address",
          "name": "to",
          "type": "address"
        },
        {
          "indexed": true,
          "internalType": "uint256",
          "name": "tokenId",
          "type": "uint256"
        }
      ],
      "name": "Transfer",
      "type": "event"
    },
    {
      "inputs": [
        {
          "internalType": "address",
          "name": "to",
          "type": "address"
        },
        {
          "internalType": "uint256",
          "name": "tokenId",
          "type": "uint256"
        }
      ],
      "name": "approve",
      "outputs": [],
      "stateMutability": "nonpayable",
      "type": "function"
    },
    {
      "inputs": [
        {
          "internalType": "address",
          "name": "owner",
          "type": "address"
        }
      ],
      "name": "balanceOf",
      "outputs": [
        {
          "internalType": "uint256",
          "name": "",
          "type": "uint256"
        }
      ],
      "stateMutability": "view",
      "type": "function",
      "constant": true
    },
    {
      "inputs": [
        {
          "internalType": "uint256",
          "name": "tokenId",
          "type": "uint256"
        }
      ],
      "name": "getApproved",
      "outputs": [
        {
          "internalType": "address",
          "name": "",
          "type": "address"
        }
      ],
      "stateMutability": "view",
      "type": "function",
      "constant": true
    },
    {
      "inputs": [
        {
          "internalType": "address",
          "name": "owner",
          "type": "address"
        },
        {
          "internalType": "address",
          "name": "operator",
          "type": "address"
        }
      ],
      "name": "isApprovedForAll",
      "outputs": [
        {
          "internalType": "bool",
          "name": "",
          "type": "bool"
        }
      ],
      "stateMutability": "view",
      "type": "function",
      "constant": true
    },
    {
      "inputs": [],
      "name": "name",
      "outputs": [
        {
          "internalType": "string",
          "name": "",
          "type": "string"
        }
      ],
      "stateMutability": "view",
      "type": "function",
      "constant": true
    },
    {
      "inputs": [],
      "name": "owner",
      "outputs": [
        {
          "internalType": "address",
          "name": "",
          "type": "address"
        }
      ],
      "stateMutability": "view",
      "type": "function",
      "constant": true
    },
    {
      "inputs": [
        {
          "internalType": "uint256",
          "name": "tokenId",
          "type": "uint256"
        }
      ],
      "name": "ownerOf",
      "outputs": [
        {
          "internalType": "address",
          "name": "",
          "type": "address"
        }
      ],
      "stateMutability": "view",
      "type": "function",
      "constant": true
    },
    {
      "inputs": [],
      "name": "renounceOwnership",
      "outputs": [],
      "stateMutability": "nonpayable",
      "type": "function"
    },
    {
      "inputs": [
        {
          "internalType": "address",
          "name": "from",
          "type": "address"
        },
        {
          "internalType": "address",
          "name": "to",
          "type": "address"
        },
        {
          "internalType": "uint256",
          "name": "tokenId",
          "type": "uint256"
        }
      ],
      "name": "safeTransferFrom",
      "outputs": [],
      "stateMutability": "nonpayable",
      "type": "function"
    },
    {
      "inputs": [
        {
          "internalType": "address",
          "name": "from",
          "type": "address"
        },
        {
          "internalType": "address",
          "name": "to",
          "type": "address"
        },
        {
          "internalType": "uint256",
          "name": "tokenId",
          "type": "uint256"
        },
        {
          "internalType": "bytes",
          "name": "data",
          "type": "bytes"
        }
      ],
      "name": "safeTransferFrom",
      "outputs": [],
      "stateMutability": "nonpayable",
      "type": "function"
    },
    {
      "inputs": [
        {
          "internalType": "address",
          "name": "operator",
          "type": "address"
        },
        {
          "internalType": "bool",
          "name": "approved",
          "type": "bool"
        }
      ],
      "name": "setApprovalForAll",
      "outputs": [],
      "stateMutability": "nonpayable",
      "type": "function"
    },
    {
      "inputs": [
        {
          "internalType": "bytes4",
          "name": "interfaceId",
          "type": "bytes4"
        }
      ],
      "name": "supportsInterface",
      "outputs": [
        {
          "internalType": "bool",
          "name": "",
          "type": "bool"
        }
      ],
      "stateMutability": "view",
      "type": "function",
      "constant": true
    },
    {
      "inputs": [],
      "name": "symbol",
      "outputs": [
        {
          "internalType": "string",
          "name": "",
          "type": "string"
        }
      ],
      "stateMutability": "view",
      "type": "function",
      "constant": true
    },
    {
      "inputs": [
        {
          "internalType": "uint256",
          "name": "index",
          "type": "uint256"
        }
      ],
      "name": "tokenByIndex",
      "outputs": [
        {
          "internalType": "uint256",
          "name": "",
          "type": "uint256"
        }
      ],
      "stateMutability": "view",
      "type": "function",
      "constant": true
    },
    {
      "inputs": [
        {
          "internalType": "address",
          "name": "owner",
          "type": "address"
        },
        {
          "internalType": "uint256",
          "name": "index",
          "type": "uint256"
        }
      ],
      "name": "tokenOfOwnerByIndex",
      "outputs": [
        {
          "internalType": "uint256",
          "name": "",
          "type": "uint256"
        }
      ],
      "stateMutability": "view",
      "type": "function",
      "constant": true
    },
    {
      "inputs": [],
      "name": "totalSupply",
      "outputs": [
        {
          "internalType": "uint256",
          "name": "",
          "type": "uint256"
        }
      ],
      "stateMutability": "view",
      "type": "function",
      "constant": true
    },
    {
      "inputs": [
        {
          "internalType": "address",
          "name": "from",
          "type": "address"
        },
        {
          "internalType": "address",
          "name": "to",
          "type": "address"
        },
        {
          "internalType": "uint256",
          "name": "tokenId",
          "type": "uint256"
        }
      ],
      "name": "transferFrom",
      "outputs": [],
      "stateMutability": "nonpayable",
      "type": "function"
    },
    {
      "inputs": [
        {
          "internalType": "address",
          "name": "newOwner",
          "type": "address"
        }
      ],
      "name": "transferOwnership",
      "outputs": [],
      "stateMutability": "nonpayable",
      "type": "function"
    },
    {
      "inputs": [
        {
          "internalType": "address",
          "name": "to",
          "type": "address"
        },
        {
          "internalType": "uint256",
          "name": "_spatialCode",
          "type": "uint256"
        },
        {
          "internalType": "string",
          "name": "_url",
          "type": "string"
        }
      ],
      "name": "mint",
      "outputs": [],
      "stateMutability": "payable",
      "type": "function",
      "payable": true
    },
    {
      "inputs": [
        {
          "internalType": "uint256",
          "name": "_spatialCode",
          "type": "uint256"
        }
      ],
      "name": "getRecord",
      "outputs": [
        {
          "internalType": "string",
          "name": "",
          "type": "string"
        }
      ],
      "stateMutability": "view",
      "type": "function",
      "constant": true
    },
    {
      "inputs": [
        {
          "internalType": "uint256",
          "name": "_spatialCode",
          "type": "uint256"
        },
        {
          "internalType": "string",
          "name": "_url",
          "type": "string"
        }
      ],
      "name": "changeUrl",
      "outputs": [],
      "stateMutability": "nonpayable",
      "type": "function"
    },
    {
      "inputs": [
        {
          "internalType": "uint256",
          "name": "_initialPrice",
          "type": "uint256"
        }
      ],
      "name": "setInitialPrice",
      "outputs": [],
      "stateMutability": "nonpayable",
      "type": "function"
    },
    {
      "inputs": [],
      "name": "getInitialPrice",
      "outputs": [
        {
          "internalType": "uint256",
          "name": "",
          "type": "uint256"
        }
      ],
      "stateMutability": "view",
      "type": "function",
      "constant": true
    },
    {
      "inputs": [],
      "name": "withdraw",
      "outputs": [],
      "stateMutability": "nonpayable",
      "type": "function"
    },
    {
      "inputs": [
        {
          "internalType": "uint256",
          "name": "tokenId",
          "type": "uint256"
        }
      ],
      "name": "tokenURI",
      "outputs": [
        {
          "internalType": "string",
          "name": "",
          "type": "string"
        }
      ],
      "stateMutability": "view",
      "type": "function",
      "constant": true
    }
  ],
  "bytecode": "0x6080604052662386f26fc10000600b553480156200001c57600080fd5b506040518060400160405280600e81526020017f4f7274686f76657273655a65726f0000000000000000000000000000000000008152506040518060400160405280600481526020017f4f52545a0000000000000000000000000000000000000000000000000000000081525081600090816200009a91906200041d565b508060019081620000ac91906200041d565b505050620000cf620000c3620000d560201b60201c565b620000dd60201b60201c565b62000504565b600033905090565b6000600a60009054906101000a900473ffffffffffffffffffffffffffffffffffffffff16905081600a60006101000a81548173ffffffffffffffffffffffffffffffffffffffff021916908373ffffffffffffffffffffffffffffffffffffffff1602179055508173ffffffffffffffffffffffffffffffffffffffff168173ffffffffffffffffffffffffffffffffffffffff167f8be0079c531659141344cd1fd0a4f28419497f9722a3daafe3b4186f6b6457e060405160405180910390a35050565b600081519050919050565b7f4e487b7100000000000000000000000000000000000000000000000000000000600052604160045260246000fd5b7f4e487b7100000000000000000000000000000000000000000000000000000000600052602260045260246000fd5b600060028204905060018216806200022557607f821691505b6020821081036200023b576200023a620001dd565b5b50919050565b60008190508160005260206000209050919050565b60006020601f8301049050919050565b600082821b905092915050565b600060088302620002a57fffffffffffffffffffffffffffffffffffffffffffffffffffffffffffffffff8262000266565b620002b1868362000266565b95508019841693508086168417925050509392505050565b6000819050919050565b6000819050919050565b6000620002fe620002f8620002f284620002c9565b620002d3565b620002c9565b9050919050565b6000819050919050565b6200031a83620002dd565b62000332620003298262000305565b84845462000273565b825550505050565b600090565b620003496200033a565b620003568184846200030f565b505050565b5b818110156200037e57620003726000826200033f565b6001810190506200035c565b5050565b601f821115620003cd57620003978162000241565b620003a28462000256565b81016020851015620003b2578190505b620003ca620003c18562000256565b8301826200035b565b50505b505050565b600082821c905092915050565b6000620003f260001984600802620003d2565b1980831691505092915050565b60006200040d8383620003df565b9150826002028217905092915050565b6200042882620001a3565b67ffffffffffffffff811115620004445762000443620001ae565b5b6200045082546200020c565b6200045d82828562000382565b600060209050601f83116001811462000495576000841562000480578287015190505b6200048c8582620003ff565b865550620004fc565b601f198416620004a58662000241565b60005b82811015620004cf57848901518255600182019150602085019450602081019050620004a8565b86831015620004ef5784890151620004eb601f891682620003df565b8355505b6001600288020188555050505b505050505050565b61369d80620005146000396000f3fe6080604052600436106101665760003560e01c80636352211e116100d15780639f4ba0ee1161008a578063c87b56dd11610064578063c87b56dd1461053a578063d3fc986414610577578063e985e9c514610593578063f2fde38b146105d057610166565b80639f4ba0ee146104bf578063a22cb465146104e8578063b88d4fde1461051157610166565b80636352211e146103af57806370a08231146103ec578063715018a6146104295780638da5cb5b1461044057806391132d8b1461046b57806395d89b411461049457610166565b806318160ddd1161012357806318160ddd146102a157806323b872dd146102cc5780632f745c59146102f55780633ccfd60b1461033257806342842e0e146103495780634f6ccce71461037257610166565b806301ffc9a71461016b57806303e9e609146101a857806306f660ef146101e557806306fdde0314610210578063081812fc1461023b578063095ea7b314610278575b600080fd5b34801561017757600080fd5b50610192600480360381019061018d91906121e3565b6105f9565b60405161019f919061222b565b60405180910390f35b3480156101b457600080fd5b506101cf60048036038101906101ca919061227c565b610673565b6040516101dc9190612339565b60405180910390f35b3480156101f157600080fd5b506101fa610718565b604051610207919061236a565b60405180910390f35b34801561021c57600080fd5b50610225610722565b6040516102329190612339565b60405180910390f35b34801561024757600080fd5b50610262600480360381019061025d919061227c565b6107b4565b60405161026f91906123c6565b60405180910390f35b34801561028457600080fd5b5061029f600480360381019061029a919061240d565b6107fa565b005b3480156102ad57600080fd5b506102b6610911565b6040516102c3919061236a565b60405180910390f35b3480156102d857600080fd5b506102f360048036038101906102ee919061244d565b61091e565b005b34801561030157600080fd5b5061031c6004803603810190610317919061240d565b61097e565b604051610329919061236a565b60405180910390f35b34801561033e57600080fd5b50610347610a23565b005b34801561035557600080fd5b50610370600480360381019061036b919061244d565b610ac4565b005b34801561037e57600080fd5b506103996004803603810190610394919061227c565b610ae4565b6040516103a6919061236a565b60405180910390f35b3480156103bb57600080fd5b506103d660048036038101906103d1919061227c565b610b55565b6040516103e391906123c6565b60405180910390f35b3480156103f857600080fd5b50610413600480360381019061040e91906124a0565b610c06565b604051610420919061236a565b60405180910390f35b34801561043557600080fd5b5061043e610cbd565b005b34801561044c57600080fd5b50610455610cd1565b60405161046291906123c6565b60405180910390f35b34801561047757600080fd5b50610492600480360381019061048d9190612602565b610cfb565b005b3480156104a057600080fd5b506104a9610d72565b6040516104b69190612339565b60405180910390f35b3480156104cb57600080fd5b506104e660048036038101906104e1919061227c565b610e04565b005b3480156104f457600080fd5b5061050f600480360381019061050a919061268a565b610e16565b005b34801561051d57600080fd5b506105386004803603810190610533919061276b565b610e2c565b005b34801561054657600080fd5b50610561600480360381019061055c919061227c565b610e8e565b60405161056e9190612339565b60405180910390f35b610591600480360381019061058c91906127ee565b610f33565b005b34801561059f57600080fd5b506105ba60048036038101906105b5919061285d565b610ff0565b6040516105c7919061222b565b60405180910390f35b3480156105dc57600080fd5b506105f760048036038101906105f291906124a0565b611084565b005b60007f780e9d63000000000000000000000000000000000000000000000000000000007bffffffffffffffffffffffffffffffffffffffffffffffffffffffff1916827bffffffffffffffffffffffffffffffffffffffffffffffffffffffff1916148061066c575061066b82611107565b5b9050919050565b6060600c60008381526020019081526020016000208054610693906128cc565b80601f01602080910402602001604051908101604052809291908181526020018280546106bf906128cc565b801561070c5780601f106106e15761010080835404028352916020019161070c565b820191906000526020600020905b8154815290600101906020018083116106ef57829003601f168201915b50505050509050919050565b6000600b54905090565b606060008054610731906128cc565b80601f016020809104026020016040519081016040528092919081815260200182805461075d906128cc565b80156107aa5780601f1061077f576101008083540402835291602001916107aa565b820191906000526020600020905b81548152906001019060200180831161078d57829003601f168201915b5050505050905090565b60006107bf826111e9565b6004600083815260200190815260200160002060009054906101000a900473ffffffffffffffffffffffffffffffffffffffff169050919050565b600061080582610b55565b90508073ffffffffffffffffffffffffffffffffffffffff168373ffffffffffffffffffffffffffffffffffffffff1603610875576040517f08c379a000000000000000000000000000000000000000000000000000000000815260040161086c9061296f565b60405180910390fd5b8073ffffffffffffffffffffffffffffffffffffffff16610894611234565b73ffffffffffffffffffffffffffffffffffffffff1614806108c357506108c2816108bd611234565b610ff0565b5b610902576040517f08c379a00000000000000000000000000000000000000000000000000000000081526004016108f990612a01565b60405180910390fd5b61090c838361123c565b505050565b6000600880549050905090565b61092f610929611234565b826112f5565b61096e576040517f08c379a000000000000000000000000000000000000000000000000000000000815260040161096590612a93565b60405180910390fd5b61097983838361138a565b505050565b600061098983610c06565b82106109ca576040517f08c379a00000000000000000000000000000000000000000000000000000000081526004016109c190612b25565b60405180910390fd5b600660008473ffffffffffffffffffffffffffffffffffffffff1673ffffffffffffffffffffffffffffffffffffffff168152602001908152602001600020600083815260200190815260200160002054905092915050565b610a2b6115f0565b60004711610a6e576040517f08c379a0000000000000000000000000000000000000000000000000000000008152600401610a6590612b91565b60405180910390fd5b6000610a78610cd1565b90508073ffffffffffffffffffffffffffffffffffffffff166108fc479081150290604051600060405180830381858888f19350505050158015610ac0573d6000803e3d6000fd5b5050565b610adf83838360405180602001604052806000815250610e2c565b505050565b6000610aee610911565b8210610b2f576040517f08c379a0000000000000000000000000000000000000000000000000000000008152600401610b2690612c23565b60405180910390fd5b60088281548110610b4357610b42612c43565b5b90600052602060002001549050919050565b6000806002600084815260200190815260200160002060009054906101000a900473ffffffffffffffffffffffffffffffffffffffff169050600073ffffffffffffffffffffffffffffffffffffffff168173ffffffffffffffffffffffffffffffffffffffff1603610bfd576040517f08c379a0000000000000000000000000000000000000000000000000000000008152600401610bf490612cbe565b60405180910390fd5b80915050919050565b60008073ffffffffffffffffffffffffffffffffffffffff168273ffffffffffffffffffffffffffffffffffffffff1603610c76576040517f08c379a0000000000000000000000000000000000000000000000000000000008152600401610c6d90612d50565b60405180910390fd5b600360008373ffffffffffffffffffffffffffffffffffffffff1673ffffffffffffffffffffffffffffffffffffffff168152602001908152602001600020549050919050565b610cc56115f0565b610ccf600061166e565b565b6000600a60009054906101000a900473ffffffffffffffffffffffffffffffffffffffff16905090565b610d0482611734565b610d0d57600080fd5b3373ffffffffffffffffffffffffffffffffffffffff16610d2d83610b55565b73ffffffffffffffffffffffffffffffffffffffff1614610d4d57600080fd5b80600c60008481526020019081526020016000209081610d6d9190612f1c565b505050565b606060018054610d81906128cc565b80601f0160208091040260200160405190810160405280929190818152602001828054610dad906128cc565b8015610dfa5780601f10610dcf57610100808354040283529160200191610dfa565b820191906000526020600020905b815481529060010190602001808311610ddd57829003601f168201915b5050505050905090565b610e0c6115f0565b80600b8190555050565b610e28610e21611234565b83836117a0565b5050565b610e3d610e37611234565b836112f5565b610e7c576040517f08c379a0000000000000000000000000000000000000000000000000000000008152600401610e7390612a93565b60405180910390fd5b610e888484848461190c565b50505050565b6060600c60008381526020019081526020016000208054610eae906128cc565b80601f0160208091040260200160405190810160405280929190818152602001828054610eda906128cc565b8015610f275780601f10610efc57610100808354040283529160200191610f27565b820191906000526020600020905b815481529060010190602001808311610f0a57829003601f168201915b50505050509050919050565b600b543414610f77576040517f08c379a0000000000000000000000000000000000000000000000000000000008152600401610f6e9061303a565b60405180910390fd5b650fffffffffff821115610fc0576040517f08c379a0000000000000000000000000000000000000000000000000000000008152600401610fb7906130a6565b60405180910390fd5b80600c60008481526020019081526020016000209081610fe09190612f1c565b50610feb8383611968565b505050565b6000600560008473ffffffffffffffffffffffffffffffffffffffff1673ffffffffffffffffffffffffffffffffffffffff16815260200190815260200160002060008373ffffffffffffffffffffffffffffffffffffffff1673ffffffffffffffffffffffffffffffffffffffff16815260200190815260200160002060009054906101000a900460ff16905092915050565b61108c6115f0565b600073ffffffffffffffffffffffffffffffffffffffff168173ffffffffffffffffffffffffffffffffffffffff16036110fb576040517f08c379a00000000000000000000000000000000000000000000000000000000081526004016110f290613138565b60405180910390fd5b6111048161166e565b50565b60007f80ac58cd000000000000000000000000000000000000000000000000000000007bffffffffffffffffffffffffffffffffffffffffffffffffffffffff1916827bffffffffffffffffffffffffffffffffffffffffffffffffffffffff191614806111d257507f5b5e139f000000000000000000000000000000000000000000000000000000007bffffffffffffffffffffffffffffffffffffffffffffffffffffffff1916827bffffffffffffffffffffffffffffffffffffffffffffffffffffffff1916145b806111e257506111e182611b41565b5b9050919050565b6111f281611734565b611231576040517f08c379a000000000000000000000000000000000000000000000000000000000815260040161122890612cbe565b60405180910390fd5b50565b600033905090565b816004600083815260200190815260200160002060006101000a81548173ffffffffffffffffffffffffffffffffffffffff021916908373ffffffffffffffffffffffffffffffffffffffff160217905550808273ffffffffffffffffffffffffffffffffffffffff166112af83610b55565b73ffffffffffffffffffffffffffffffffffffffff167f8c5be1e5ebec7d5bd14f71427d1e84f3dd0314c0f7b2291e5b200ac8c7c3b92560405160405180910390a45050565b60008061130183610b55565b90508073ffffffffffffffffffffffffffffffffffffffff168473ffffffffffffffffffffffffffffffffffffffff16148061134357506113428185610ff0565b5b8061138157508373ffffffffffffffffffffffffffffffffffffffff16611369846107b4565b73ffffffffffffffffffffffffffffffffffffffff16145b91505092915050565b8273ffffffffffffffffffffffffffffffffffffffff166113aa82610b55565b73ffffffffffffffffffffffffffffffffffffffff1614611400576040517f08c379a00000000000000000000000000000000000000000000000000000000081526004016113f7906131ca565b60405180910390fd5b600073ffffffffffffffffffffffffffffffffffffffff168273ffffffffffffffffffffffffffffffffffffffff160361146f576040517f08c379a00000000000000000000000000000000000000000000000000000000081526004016114669061325c565b60405180910390fd5b61147a838383611bab565b61148560008261123c565b6001600360008573ffffffffffffffffffffffffffffffffffffffff1673ffffffffffffffffffffffffffffffffffffffff16815260200190815260200160002060008282546114d591906132ab565b925050819055506001600360008473ffffffffffffffffffffffffffffffffffffffff1673ffffffffffffffffffffffffffffffffffffffff168152602001908152602001600020600082825461152c91906132df565b92505081905550816002600083815260200190815260200160002060006101000a81548173ffffffffffffffffffffffffffffffffffffffff021916908373ffffffffffffffffffffffffffffffffffffffff160217905550808273ffffffffffffffffffffffffffffffffffffffff168473ffffffffffffffffffffffffffffffffffffffff167fddf252ad1be2c89b69c2b068fc378daa952ba7f163c4a11628f55a4df523b3ef60405160405180910390a46115eb838383611cbd565b505050565b6115f8611234565b73ffffffffffffffffffffffffffffffffffffffff16611616610cd1565b73ffffffffffffffffffffffffffffffffffffffff161461166c576040517f08c379a00000000000000000000000000000000000000000000000000000000081526004016116639061335f565b60405180910390fd5b565b6000600a60009054906101000a900473ffffffffffffffffffffffffffffffffffffffff16905081600a60006101000a81548173ffffffffffffffffffffffffffffffffffffffff021916908373ffffffffffffffffffffffffffffffffffffffff1602179055508173ffffffffffffffffffffffffffffffffffffffff168173ffffffffffffffffffffffffffffffffffffffff167f8be0079c531659141344cd1fd0a4f28419497f9722a3daafe3b4186f6b6457e060405160405180910390a35050565b60008073ffffffffffffffffffffffffffffffffffffffff166002600084815260200190815260200160002060009054906101000a900473ffffffffffffffffffffffffffffffffffffffff1673ffffffffffffffffffffffffffffffffffffffff1614159050919050565b8173ffffffffffffffffffffffffffffffffffffffff168373ffffffffffffffffffffffffffffffffffffffff160361180e576040517f08c379a0000000000000000000000000000000000000000000000000000000008152600401611805906133cb565b60405180910390fd5b80600560008573ffffffffffffffffffffffffffffffffffffffff1673ffffffffffffffffffffffffffffffffffffffff16815260200190815260200160002060008473ffffffffffffffffffffffffffffffffffffffff1673ffffffffffffffffffffffffffffffffffffffff16815260200190815260200160002060006101000a81548160ff0219169083151502179055508173ffffffffffffffffffffffffffffffffffffffff168373ffffffffffffffffffffffffffffffffffffffff167f17307eab39ab6107e8899845ad3d59bd9653f200f220920489ca2b5937696c31836040516118ff919061222b565b60405180910390a3505050565b61191784848461138a565b61192384848484611cc2565b611962576040517f08c379a00000000000000000000000000000000000000000000000000000000081526004016119599061345d565b60405180910390fd5b50505050565b600073ffffffffffffffffffffffffffffffffffffffff168273ffffffffffffffffffffffffffffffffffffffff16036119d7576040517f08c379a00000000000000000000000000000000000000000000000000000000081526004016119ce906134c9565b60405180910390fd5b6119e081611734565b15611a20576040517f08c379a0000000000000000000000000000000000000000000000000000000008152600401611a1790613535565b60405180910390fd5b611a2c60008383611bab565b6001600360008473ffffffffffffffffffffffffffffffffffffffff1673ffffffffffffffffffffffffffffffffffffffff1681526020019081526020016000206000828254611a7c91906132df565b92505081905550816002600083815260200190815260200160002060006101000a81548173ffffffffffffffffffffffffffffffffffffffff021916908373ffffffffffffffffffffffffffffffffffffffff160217905550808273ffffffffffffffffffffffffffffffffffffffff16600073ffffffffffffffffffffffffffffffffffffffff167fddf252ad1be2c89b69c2b068fc378daa952ba7f163c4a11628f55a4df523b3ef60405160405180910390a4611b3d60008383611cbd565b5050565b60007f01ffc9a7000000000000000000000000000000000000000000000000000000007bffffffffffffffffffffffffffffffffffffffffffffffffffffffff1916827bffffffffffffffffffffffffffffffffffffffffffffffffffffffff1916149050919050565b611bb6838383611e49565b600073ffffffffffffffffffffffffffffffffffffffff168373ffffffffffffffffffffffffffffffffffffffff1603611bf857611bf381611e4e565b611c37565b8173ffffffffffffffffffffffffffffffffffffffff168373ffffffffffffffffffffffffffffffffffffffff1614611c3657611c358382611e97565b5b5b600073ffffffffffffffffffffffffffffffffffffffff168273ffffffffffffffffffffffffffffffffffffffff1603611c7957611c7481612004565b611cb8565b8273ffffffffffffffffffffffffffffffffffffffff168273ffffffffffffffffffffffffffffffffffffffff1614611cb757611cb682826120d5565b5b5b505050565b505050565b6000611ce38473ffffffffffffffffffffffffffffffffffffffff16612154565b15611e3c578373ffffffffffffffffffffffffffffffffffffffff1663150b7a02611d0c611234565b8786866040518563ffffffff1660e01b8152600401611d2e94939291906135aa565b6020604051808303816000875af1925050508015611d6a57506040513d601f19601f82011682018060405250810190611d67919061360b565b60015b611dec573d8060008114611d9a576040519150601f19603f3d011682016040523d82523d6000602084013e611d9f565b606091505b506000815103611de4576040517f08c379a0000000000000000000000000000000000000000000000000000000008152600401611ddb9061345d565b60405180910390fd5b805181602001fd5b63150b7a0260e01b7bffffffffffffffffffffffffffffffffffffffffffffffffffffffff1916817bffffffffffffffffffffffffffffffffffffffffffffffffffffffff191614915050611e41565b600190505b949350505050565b505050565b6008805490506009600083815260200190815260200160002081905550600881908060018154018082558091505060019003906000526020600020016000909190919091505550565b60006001611ea484610c06565b611eae91906132ab565b9050600060076000848152602001908152602001600020549050818114611f93576000600660008673ffffffffffffffffffffffffffffffffffffffff1673ffffffffffffffffffffffffffffffffffffffff168152602001908152602001600020600084815260200190815260200160002054905080600660008773ffffffffffffffffffffffffffffffffffffffff1673ffffffffffffffffffffffffffffffffffffffff168152602001908152602001600020600084815260200190815260200160002081905550816007600083815260200190815260200160002081905550505b6007600084815260200190815260200160002060009055600660008573ffffffffffffffffffffffffffffffffffffffff1673ffffffffffffffffffffffffffffffffffffffff16815260200190815260200160002060008381526020019081526020016000206000905550505050565b6000600160088054905061201891906132ab565b905060006009600084815260200190815260200160002054905060006008838154811061204857612047612c43565b5b90600052602060002001549050806008838154811061206a57612069612c43565b5b9060005260206000200181905550816009600083815260200190815260200160002081905550600960008581526020019081526020016000206000905560088054806120b9576120b8613638565b5b6001900381819060005260206000200160009055905550505050565b60006120e083610c06565b905081600660008573ffffffffffffffffffffffffffffffffffffffff1673ffffffffffffffffffffffffffffffffffffffff168152602001908152602001600020600083815260200190815260200160002081905550806007600084815260200190815260200160002081905550505050565b6000808273ffffffffffffffffffffffffffffffffffffffff163b119050919050565b6000604051905090565b600080fd5b600080fd5b60007fffffffff0000000000000000000000000000000000000000000000000000000082169050919050565b6121c08161218b565b81146121cb57600080fd5b50565b6000813590506121dd816121b7565b92915050565b6000602082840312156121f9576121f8612181565b5b6000612207848285016121ce565b91505092915050565b60008115159050919050565b61222581612210565b82525050565b6000602082019050612240600083018461221c565b92915050565b6000819050919050565b61225981612246565b811461226457600080fd5b50565b60008135905061227681612250565b92915050565b60006020828403121561229257612291612181565b5b60006122a084828501612267565b91505092915050565b600081519050919050565b600082825260208201905092915050565b60005b838110156122e35780820151818401526020810190506122c8565b60008484015250505050565b6000601f19601f8301169050919050565b600061230b826122a9565b61231581856122b4565b93506123258185602086016122c5565b61232e816122ef565b840191505092915050565b600060208201905081810360008301526123538184612300565b905092915050565b61236481612246565b82525050565b600060208201905061237f600083018461235b565b92915050565b600073ffffffffffffffffffffffffffffffffffffffff82169050919050565b60006123b082612385565b9050919050565b6123c0816123a5565b82525050565b60006020820190506123db60008301846123b7565b92915050565b6123ea816123a5565b81146123f557600080fd5b50565b600081359050612407816123e1565b92915050565b6000806040838503121561242457612423612181565b5b6000612432858286016123f8565b925050602061244385828601612267565b9150509250929050565b60008060006060848603121561246657612465612181565b5b6000612474868287016123f8565b9350506020612485868287016123f8565b925050604061249686828701612267565b9150509250925092565b6000602082840312156124b6576124b5612181565b5b60006124c4848285016123f8565b91505092915050565b600080fd5b600080fd5b7f4e487b7100000000000000000000000000000000000000000000000000000000600052604160045260246000fd5b61250f826122ef565b810181811067ffffffffffffffff8211171561252e5761252d6124d7565b5b80604052505050565b6000612541612177565b905061254d8282612506565b919050565b600067ffffffffffffffff82111561256d5761256c6124d7565b5b612576826122ef565b9050602081019050919050565b82818337600083830152505050565b60006125a56125a084612552565b612537565b9050828152602081018484840111156125c1576125c06124d2565b5b6125cc848285612583565b509392505050565b600082601f8301126125e9576125e86124cd565b5b81356125f9848260208601612592565b91505092915050565b6000806040838503121561261957612618612181565b5b600061262785828601612267565b925050602083013567ffffffffffffffff81111561264857612647612186565b5b612654858286016125d4565b9150509250929050565b61266781612210565b811461267257600080fd5b50565b6000813590506126848161265e565b92915050565b600080604083850312156126a1576126a0612181565b5b60006126af858286016123f8565b92505060206126c085828601612675565b9150509250929050565b600067ffffffffffffffff8211156126e5576126e46124d7565b5b6126ee826122ef565b9050602081019050919050565b600061270e612709846126ca565b612537565b90508281526020810184848401111561272a576127296124d2565b5b612735848285612583565b509392505050565b600082601f830112612752576127516124cd565b5b81356127628482602086016126fb565b91505092915050565b6000806000806080858703121561278557612784612181565b5b6000612793878288016123f8565b94505060206127a4878288016123f8565b93505060406127b587828801612267565b925050606085013567ffffffffffffffff8111156127d6576127d5612186565b5b6127e28782880161273d565b91505092959194509250565b60008060006060848603121561280757612806612181565b5b6000612815868287016123f8565b935050602061282686828701612267565b925050604084013567ffffffffffffffff81111561284757612846612186565b5b612853868287016125d4565b9150509250925092565b6000806040838503121561287457612873612181565b5b6000612882858286016123f8565b9250506020612893858286016123f8565b9150509250929050565b7f4e487b7100000000000000000000000000000000000000000000000000000000600052602260045260246000fd5b600060028204905060018216806128e457607f821691505b6020821081036128f7576128f661289d565b5b50919050565b7f4552433732313a20617070726f76616c20746f2063757272656e74206f776e6560008201527f7200000000000000000000000000000000000000000000000000000000000000602082015250565b60006129596021836122b4565b9150612964826128fd565b604082019050919050565b600060208201905081810360008301526129888161294c565b9050919050565b7f4552433732313a20617070726f76652063616c6c6572206973206e6f7420746f60008201527f6b656e206f776e6572206e6f7220617070726f76656420666f7220616c6c0000602082015250565b60006129eb603e836122b4565b91506129f68261298f565b604082019050919050565b60006020820190508181036000830152612a1a816129de565b9050919050565b7f4552433732313a2063616c6c6572206973206e6f7420746f6b656e206f776e6560008201527f72206e6f7220617070726f766564000000000000000000000000000000000000602082015250565b6000612a7d602e836122b4565b9150612a8882612a21565b604082019050919050565b60006020820190508181036000830152612aac81612a70565b9050919050565b7f455243373231456e756d657261626c653a206f776e657220696e646578206f7560008201527f74206f6620626f756e6473000000000000000000000000000000000000000000602082015250565b6000612b0f602b836122b4565b9150612b1a82612ab3565b604082019050919050565b60006020820190508181036000830152612b3e81612b02565b9050919050565b7f4e6f7420656e6f75676820657468657200000000000000000000000000000000600082015250565b6000612b7b6010836122b4565b9150612b8682612b45565b602082019050919050565b60006020820190508181036000830152612baa81612b6e565b9050919050565b7f455243373231456e756d657261626c653a20676c6f62616c20696e646578206f60008201527f7574206f6620626f756e64730000000000000000000000000000000000000000602082015250565b6000612c0d602c836122b4565b9150612c1882612bb1565b604082019050919050565b60006020820190508181036000830152612c3c81612c00565b9050919050565b7f4e487b7100000000000000000000000000000000000000000000000000000000600052603260045260246000fd5b7f4552433732313a20696e76616c696420746f6b656e2049440000000000000000600082015250565b6000612ca86018836122b4565b9150612cb382612c72565b602082019050919050565b60006020820190508181036000830152612cd781612c9b565b9050919050565b7f4552433732313a2061646472657373207a65726f206973206e6f74206120766160008201527f6c6964206f776e65720000000000000000000000000000000000000000000000602082015250565b6000612d3a6029836122b4565b9150612d4582612cde565b604082019050919050565b60006020820190508181036000830152612d6981612d2d565b9050919050565b60008190508160005260206000209050919050565b60006020601f8301049050919050565b600082821b905092915050565b600060088302612dd27fffffffffffffffffffffffffffffffffffffffffffffffffffffffffffffffff82612d95565b612ddc8683612d95565b95508019841693508086168417925050509392505050565b6000819050919050565b6000612e19612e14612e0f84612246565b612df4565b612246565b9050919050565b6000819050919050565b612e3383612dfe565b612e47612e3f82612e20565b848454612da2565b825550505050565b600090565b612e5c612e4f565b612e67818484612e2a565b505050565b5b81811015612e8b57612e80600082612e54565b600181019050612e6d565b5050565b601f821115612ed057612ea181612d70565b612eaa84612d85565b81016020851015612eb9578190505b612ecd612ec585612d85565b830182612e6c565b50505b505050565b600082821c905092915050565b6000612ef360001984600802612ed5565b1980831691505092915050565b6000612f0c8383612ee2565b9150826002028217905092915050565b612f25826122a9565b67ffffffffffffffff811115612f3e57612f3d6124d7565b5b612f4882546128cc565b612f53828285612e8f565b600060209050601f831160018114612f865760008415612f74578287015190505b612f7e8582612f00565b865550612fe6565b601f198416612f9486612d70565b60005b82811015612fbc57848901518255600182019150602085019450602081019050612f97565b86831015612fd95784890151612fd5601f891682612ee2565b8355505b6001600288020188555050505b505050505050565b7f4e6f7420656e6f75676820656874657200000000000000000000000000000000600082015250565b60006130246010836122b4565b915061302f82612fee565b602082019050919050565b6000602082019050818103600083015261305381613017565b9050919050565b7f5370617469616c20436f64652052616e67652065786365656400000000000000600082015250565b60006130906019836122b4565b915061309b8261305a565b602082019050919050565b600060208201905081810360008301526130bf81613083565b9050919050565b7f4f776e61626c653a206e6577206f776e657220697320746865207a65726f206160008201527f6464726573730000000000000000000000000000000000000000000000000000602082015250565b60006131226026836122b4565b915061312d826130c6565b604082019050919050565b6000602082019050818103600083015261315181613115565b9050919050565b7f4552433732313a207472616e736665722066726f6d20696e636f72726563742060008201527f6f776e6572000000000000000000000000000000000000000000000000000000602082015250565b60006131b46025836122b4565b91506131bf82613158565b604082019050919050565b600060208201905081810360008301526131e3816131a7565b9050919050565b7f4552433732313a207472616e7366657220746f20746865207a65726f2061646460008201527f7265737300000000000000000000000000000000000000000000000000000000602082015250565b60006132466024836122b4565b9150613251826131ea565b604082019050919050565b6000602082019050818103600083015261327581613239565b9050919050565b7f4e487b7100000000000000000000000000000000000000000000000000000000600052601160045260246000fd5b60006132b682612246565b91506132c183612246565b92508282039050818111156132d9576132d861327c565b5b92915050565b60006132ea82612246565b91506132f583612246565b925082820190508082111561330d5761330c61327c565b5b92915050565b7f4f776e61626c653a2063616c6c6572206973206e6f7420746865206f776e6572600082015250565b60006133496020836122b4565b915061335482613313565b602082019050919050565b600060208201905081810360008301526133788161333c565b9050919050565b7f4552433732313a20617070726f766520746f2063616c6c657200000000000000600082015250565b60006133b56019836122b4565b91506133c08261337f565b602082019050919050565b600060208201905081810360008301526133e4816133a8565b9050919050565b7f4552433732313a207472616e7366657220746f206e6f6e20455243373231526560008201527f63656976657220696d706c656d656e7465720000000000000000000000000000602082015250565b60006134476032836122b4565b9150613452826133eb565b604082019050919050565b600060208201905081810360008301526134768161343a565b9050919050565b7f4552433732313a206d696e7420746f20746865207a65726f2061646472657373600082015250565b60006134b36020836122b4565b91506134be8261347d565b602082019050919050565b600060208201905081810360008301526134e2816134a6565b9050919050565b7f4552433732313a20746f6b656e20616c7265616479206d696e74656400000000600082015250565b600061351f601c836122b4565b915061352a826134e9565b602082019050919050565b6000602082019050818103600083015261354e81613512565b9050919050565b600081519050919050565b600082825260208201905092915050565b600061357c82613555565b6135868185613560565b93506135968185602086016122c5565b61359f816122ef565b840191505092915050565b60006080820190506135bf60008301876123b7565b6135cc60208301866123b7565b6135d9604083018561235b565b81810360608301526135eb8184613571565b905095945050505050565b600081519050613605816121b7565b92915050565b60006020828403121561362157613620612181565b5b600061362f848285016135f6565b91505092915050565b7f4e487b7100000000000000000000000000000000000000000000000000000000600052603160045260246000fdfea2646970667358221220bfacee896a1608b7c610e16ea49a70672fdf368b6bfdb448b52d01aef82aebf064736f6c63430008100033",
  "immutableReferences": {},
  "source": "// SPDX-License-Identifier: MIT\r\n// SPDX-FileCopyrightText: 2022- Suguru Oho <oho.sugu@gmail.com>\r\n\r\npragma solidity >=0.4.22 <0.9.0;\r\n\r\nimport \"@openzeppelin/contracts/utils/math/SafeMath.sol\";\r\nimport \"@openzeppelin/contracts/token/ERC721/extensions/ERC721Enumerable.sol\";\r\nimport \"@openzeppelin/contracts/access/Ownable.sol\";\r\n\r\ncontract PNSRegistry is ERC721Enumerable, Ownable {\r\n  using SafeMath for uint256;\r\n  uint256 initialPrice = 0.01 ether;\r\n\r\n  mapping(uint256 => string) private records;\r\n\r\n  constructor() ERC721(\"OrthoverseZero\", \"ORTZ\") {\r\n  }\r\n\r\n  function mint(address to, uint256 _spatialCode, string memory _url) public payable virtual {\r\n    require(msg.value == initialPrice, \"Not enough ehter\");\r\n    // 22bit \r\n    require(_spatialCode <= 0xFFFFFFFFFFF, \"Spatial Code Range exceed\");\r\n\r\n    records[_spatialCode] = _url;\r\n    _mint(to, _spatialCode);\r\n  }\r\n\r\n  function getRecord(uint256 _spatialCode) public view returns(string memory) {\r\n    return records[_spatialCode];\r\n  }\r\n\r\n  function changeUrl(uint256 _spatialCode, string memory _url) public virtual {\r\n    require(_exists(_spatialCode));\r\n    require(ownerOf(_spatialCode) == msg.sender);\r\n\r\n    records[_spatialCode] = _url;\r\n  }\r\n\r\n  function setInitialPrice(uint256 _initialPrice) external onlyOwner {\r\n    initialPrice = _initialPrice;\r\n  }\r\n\r\n  function getInitialPrice() external view returns(uint256){\r\n    return initialPrice;\r\n  }\r\n\r\n  function withdraw() external onlyOwner {\r\n    require(address(this).balance > 0, \"Not enough ether\");\r\n    address payable _owner = payable(owner());\r\n    _owner.transfer(address(this).balance);\r\n  }\r\n\r\n  function tokenURI(uint256 tokenId) public view virtual override returns (string memory) {\r\n      return records[tokenId];\r\n  }\r\n}\r\n",
  "sourcePath": "C:\\Users\\oho_s\\repo\\orthoverse-contracts\\contracts\\PNSRegistry.sol",
  "compiler": {
    "name": "solc",
    "version": "0.8.16+commit.07a7930e.Emscripten.clang"
  },
  "schemaVersion": "3.4.9",
  "updatedAt": "2022-10-26T11:48:30.359Z",
  "networkType": "ethereum",
  "devdoc": {
    "kind": "dev",
    "methods": {
      "approve(address,uint256)": {
        "details": "See {IERC721-approve}."
      },
      "balanceOf(address)": {
        "details": "See {IERC721-balanceOf}."
      },
      "getApproved(uint256)": {
        "details": "See {IERC721-getApproved}."
      },
      "isApprovedForAll(address,address)": {
        "details": "See {IERC721-isApprovedForAll}."
      },
      "name()": {
        "details": "See {IERC721Metadata-name}."
      },
      "owner()": {
        "details": "Returns the address of the current owner."
      },
      "ownerOf(uint256)": {
        "details": "See {IERC721-ownerOf}."
      },
      "renounceOwnership()": {
        "details": "Leaves the contract without owner. It will not be possible to call `onlyOwner` functions anymore. Can only be called by the current owner. NOTE: Renouncing ownership will leave the contract without an owner, thereby removing any functionality that is only available to the owner."
      },
      "safeTransferFrom(address,address,uint256)": {
        "details": "See {IERC721-safeTransferFrom}."
      },
      "safeTransferFrom(address,address,uint256,bytes)": {
        "details": "See {IERC721-safeTransferFrom}."
      },
      "setApprovalForAll(address,bool)": {
        "details": "See {IERC721-setApprovalForAll}."
      },
      "supportsInterface(bytes4)": {
        "details": "See {IERC165-supportsInterface}."
      },
      "symbol()": {
        "details": "See {IERC721Metadata-symbol}."
      },
      "tokenByIndex(uint256)": {
        "details": "See {IERC721Enumerable-tokenByIndex}."
      },
      "tokenOfOwnerByIndex(address,uint256)": {
        "details": "See {IERC721Enumerable-tokenOfOwnerByIndex}."
      },
      "tokenURI(uint256)": {
        "details": "See {IERC721Metadata-tokenURI}."
      },
      "totalSupply()": {
        "details": "See {IERC721Enumerable-totalSupply}."
      },
      "transferFrom(address,address,uint256)": {
        "details": "See {IERC721-transferFrom}."
      },
      "transferOwnership(address)": {
        "details": "Transfers ownership of the contract to a new account (`newOwner`). Can only be called by the current owner."
      }
    },
    "version": 1
  },
  "userdoc": {
    "kind": "user",
    "methods": {},
    "version": 1
  }
}