{
    "contractName": "PNSRegistry",
    "abi": [
        {
            "inputs": [],
            "stateMutability": "nonpayable",
            "type": "constructor"
        },
        {
            "anonymous": false,
            "inputs": [
                {
                    "indexed": true,
                    "internalType": "address",
                    "name": "owner",
                    "type": "address"
                },
                {
                    "indexed": true,
                    "internalType": "address",
                    "name": "approved",
                    "type": "address"
                },
                {
                    "indexed": true,
                    "internalType": "uint256",
                    "name": "tokenId",
                    "type": "uint256"
                }
            ],
            "name": "Approval",
            "type": "event"
        },
        {
            "anonymous": false,
            "inputs": [
                {
                    "indexed": true,
                    "internalType": "address",
                    "name": "owner",
                    "type": "address"
                },
                {
                    "indexed": true,
                    "internalType": "address",
                    "name": "operator",
                    "type": "address"
                },
                {
                    "indexed": false,
                    "internalType": "bool",
                    "name": "approved",
                    "type": "bool"
                }
            ],
            "name": "ApprovalForAll",
            "type": "event"
        },
        {
            "anonymous": false,
            "inputs": [
                {
                    "indexed": true,
                    "internalType": "address",
                    "name": "previousOwner",
                    "type": "address"
                },
                {
                    "indexed": true,
                    "internalType": "address",
                    "name": "newOwner",
                    "type": "address"
                }
            ],
            "name": "OwnershipTransferred",
            "type": "event"
        },
        {
            "anonymous": false,
            "inputs": [
                {
                    "indexed": true,
                    "internalType": "address",
                    "name": "from",
                    "type": "address"
                },
                {
                    "indexed": true,
                    "internalType": "address",
                    "name": "to",
                    "type": "address"
                },
                {
                    "indexed": true,
                    "internalType": "uint256",
                    "name": "tokenId",
                    "type": "uint256"
                }
            ],
            "name": "Transfer",
            "type": "event"
        },
        {
            "inputs": [
                {
                    "internalType": "address",
                    "name": "to",
                    "type": "address"
                },
                {
                    "internalType": "uint256",
                    "name": "tokenId",
                    "type": "uint256"
                }
            ],
            "name": "approve",
            "outputs": [],
            "stateMutability": "nonpayable",
            "type": "function"
        },
        {
            "inputs": [
                {
                    "internalType": "address",
                    "name": "owner",
                    "type": "address"
                }
            ],
            "name": "balanceOf",
            "outputs": [
                {
                    "internalType": "uint256",
                    "name": "",
                    "type": "uint256"
                }
            ],
            "stateMutability": "view",
            "type": "function"
        },
        {
            "inputs": [
                {
                    "internalType": "uint256",
                    "name": "_spatialCode",
                    "type": "uint256"
                },
                {
                    "internalType": "string",
                    "name": "_url",
                    "type": "string"
                }
            ],
            "name": "changeUrl",
            "outputs": [],
            "stateMutability": "nonpayable",
            "type": "function"
        },
        {
            "inputs": [
                {
                    "internalType": "uint256",
                    "name": "tokenId",
                    "type": "uint256"
                }
            ],
            "name": "getApproved",
            "outputs": [
                {
                    "internalType": "address",
                    "name": "",
                    "type": "address"
                }
            ],
            "stateMutability": "view",
            "type": "function"
        },
        {
            "inputs": [],
            "name": "getInitialPrice",
            "outputs": [
                {
                    "internalType": "uint256",
                    "name": "",
                    "type": "uint256"
                }
            ],
            "stateMutability": "view",
            "type": "function"
        },
        {
            "inputs": [
                {
                    "internalType": "uint256",
                    "name": "_spatialCode",
                    "type": "uint256"
                }
            ],
            "name": "getRecord",
            "outputs": [
                {
                    "internalType": "string",
                    "name": "",
                    "type": "string"
                }
            ],
            "stateMutability": "view",
            "type": "function"
        },
        {
            "inputs": [
                {
                    "internalType": "address",
                    "name": "owner",
                    "type": "address"
                },
                {
                    "internalType": "address",
                    "name": "operator",
                    "type": "address"
                }
            ],
            "name": "isApprovedForAll",
            "outputs": [
                {
                    "internalType": "bool",
                    "name": "",
                    "type": "bool"
                }
            ],
            "stateMutability": "view",
            "type": "function"
        },
        {
            "inputs": [
                {
                    "internalType": "address",
                    "name": "to",
                    "type": "address"
                },
                {
                    "internalType": "uint256",
                    "name": "_spatialCode",
                    "type": "uint256"
                },
                {
                    "internalType": "string",
                    "name": "_url",
                    "type": "string"
                }
            ],
            "name": "mint",
            "outputs": [],
            "stateMutability": "payable",
            "type": "function"
        },
        {
            "inputs": [],
            "name": "name",
            "outputs": [
                {
                    "internalType": "string",
                    "name": "",
                    "type": "string"
                }
            ],
            "stateMutability": "view",
            "type": "function"
        },
        {
            "inputs": [],
            "name": "owner",
            "outputs": [
                {
                    "internalType": "address",
                    "name": "",
                    "type": "address"
                }
            ],
            "stateMutability": "view",
            "type": "function"
        },
        {
            "inputs": [
                {
                    "internalType": "uint256",
                    "name": "tokenId",
                    "type": "uint256"
                }
            ],
            "name": "ownerOf",
            "outputs": [
                {
                    "internalType": "address",
                    "name": "",
                    "type": "address"
                }
            ],
            "stateMutability": "view",
            "type": "function"
        },
        {
            "inputs": [],
            "name": "renounceOwnership",
            "outputs": [],
            "stateMutability": "nonpayable",
            "type": "function"
        },
        {
            "inputs": [
                {
                    "internalType": "address",
                    "name": "from",
                    "type": "address"
                },
                {
                    "internalType": "address",
                    "name": "to",
                    "type": "address"
                },
                {
                    "internalType": "uint256",
                    "name": "tokenId",
                    "type": "uint256"
                }
            ],
            "name": "safeTransferFrom",
            "outputs": [],
            "stateMutability": "nonpayable",
            "type": "function"
        },
        {
            "inputs": [
                {
                    "internalType": "address",
                    "name": "from",
                    "type": "address"
                },
                {
                    "internalType": "address",
                    "name": "to",
                    "type": "address"
                },
                {
                    "internalType": "uint256",
                    "name": "tokenId",
                    "type": "uint256"
                },
                {
                    "internalType": "bytes",
                    "name": "data",
                    "type": "bytes"
                }
            ],
            "name": "safeTransferFrom",
            "outputs": [],
            "stateMutability": "nonpayable",
            "type": "function"
        },
        {
            "inputs": [
                {
                    "internalType": "address",
                    "name": "operator",
                    "type": "address"
                },
                {
                    "internalType": "bool",
                    "name": "approved",
                    "type": "bool"
                }
            ],
            "name": "setApprovalForAll",
            "outputs": [],
            "stateMutability": "nonpayable",
            "type": "function"
        },
        {
            "inputs": [
                {
                    "internalType": "uint256",
                    "name": "_initialPrice",
                    "type": "uint256"
                }
            ],
            "name": "setInitialPrice",
            "outputs": [],
            "stateMutability": "nonpayable",
            "type": "function"
        },
        {
            "inputs": [
                {
                    "internalType": "bytes4",
                    "name": "interfaceId",
                    "type": "bytes4"
                }
            ],
            "name": "supportsInterface",
            "outputs": [
                {
                    "internalType": "bool",
                    "name": "",
                    "type": "bool"
                }
            ],
            "stateMutability": "view",
            "type": "function"
        },
        {
            "inputs": [],
            "name": "symbol",
            "outputs": [
                {
                    "internalType": "string",
                    "name": "",
                    "type": "string"
                }
            ],
            "stateMutability": "view",
            "type": "function"
        },
        {
            "inputs": [
                {
                    "internalType": "uint256",
                    "name": "index",
                    "type": "uint256"
                }
            ],
            "name": "tokenByIndex",
            "outputs": [
                {
                    "internalType": "uint256",
                    "name": "",
                    "type": "uint256"
                }
            ],
            "stateMutability": "view",
            "type": "function"
        },
        {
            "inputs": [
                {
                    "internalType": "address",
                    "name": "owner",
                    "type": "address"
                },
                {
                    "internalType": "uint256",
                    "name": "index",
                    "type": "uint256"
                }
            ],
            "name": "tokenOfOwnerByIndex",
            "outputs": [
                {
                    "internalType": "uint256",
                    "name": "",
                    "type": "uint256"
                }
            ],
            "stateMutability": "view",
            "type": "function"
        },
        {
            "inputs": [
                {
                    "internalType": "uint256",
                    "name": "tokenId",
                    "type": "uint256"
                }
            ],
            "name": "tokenURI",
            "outputs": [
                {
                    "internalType": "string",
                    "name": "",
                    "type": "string"
                }
            ],
            "stateMutability": "view",
            "type": "function"
        },
        {
            "inputs": [],
            "name": "totalSupply",
            "outputs": [
                {
                    "internalType": "uint256",
                    "name": "",
                    "type": "uint256"
                }
            ],
            "stateMutability": "view",
            "type": "function"
        },
        {
            "inputs": [
                {
                    "internalType": "address",
                    "name": "from",
                    "type": "address"
                },
                {
                    "internalType": "address",
                    "name": "to",
                    "type": "address"
                },
                {
                    "internalType": "uint256",
                    "name": "tokenId",
                    "type": "uint256"
                }
            ],
            "name": "transferFrom",
            "outputs": [],
            "stateMutability": "nonpayable",
            "type": "function"
        },
        {
            "inputs": [
                {
                    "internalType": "address",
                    "name": "newOwner",
                    "type": "address"
                }
            ],
            "name": "transferOwnership",
            "outputs": [],
            "stateMutability": "nonpayable",
            "type": "function"
        },
        {
            "inputs": [],
            "name": "withdraw",
            "outputs": [],
            "stateMutability": "nonpayable",
            "type": "function"
        }
    ],
    "bytecode": "6080604052662386f26fc10000600b553480156200001c57600080fd5b506040518060400160405280600e81526020016d4f7274686f76657273655a65726f60901b8152506040518060400160405280600481526020016327a92a2d60e11b81525081600090816200007291906200019f565b5060016200008182826200019f565b5050506200009e62000098620000a460201b60201c565b620000a8565b6200026b565b3390565b600a80546001600160a01b038381166001600160a01b0319831681179093556040519116919082907f8be0079c531659141344cd1fd0a4f28419497f9722a3daafe3b4186f6b6457e090600090a35050565b634e487b7160e01b600052604160045260246000fd5b600181811c908216806200012557607f821691505b6020821081036200014657634e487b7160e01b600052602260045260246000fd5b50919050565b601f8211156200019a57600081815260208120601f850160051c81016020861015620001755750805b601f850160051c820191505b81811015620001965782815560010162000181565b5050505b505050565b81516001600160401b03811115620001bb57620001bb620000fa565b620001d381620001cc845462000110565b846200014c565b602080601f8311600181146200020b5760008415620001f25750858301515b600019600386901b1c1916600185901b17855562000196565b600085815260208120601f198616915b828110156200023c578886015182559484019460019091019084016200021b565b50858210156200025b5787850151600019600388901b60f8161c191681555b5050505050600190811b01905550565b611e46806200027b6000396000f3fe6080604052600436106101665760003560e01c80636352211e116100d15780639f4ba0ee1161008a578063c87b56dd11610064578063c87b56dd1461040d578063d3fc98641461042d578063e985e9c514610440578063f2fde38b1461048957600080fd5b80639f4ba0ee146103ad578063a22cb465146103cd578063b88d4fde146103ed57600080fd5b80636352211e1461030557806370a0823114610325578063715018a6146103455780638da5cb5b1461035a57806391132d8b1461037857806395d89b411461039857600080fd5b806318160ddd1161012357806318160ddd1461025b57806323b872dd146102705780632f745c59146102905780633ccfd60b146102b057806342842e0e146102c55780634f6ccce7146102e557600080fd5b806301ffc9a71461016b57806303e9e609146101a057806306f660ef146101cd57806306fdde03146101ec578063081812fc14610201578063095ea7b314610239575b600080fd5b34801561017757600080fd5b5061018b610186366004611775565b6104a9565b60405190151581526020015b60405180910390f35b3480156101ac57600080fd5b506101c06101bb366004611792565b6104d4565b60405161019791906117fb565b3480156101d957600080fd5b50600b545b604051908152602001610197565b3480156101f857600080fd5b506101c0610576565b34801561020d57600080fd5b5061022161021c366004611792565b610608565b6040516001600160a01b039091168152602001610197565b34801561024557600080fd5b5061025961025436600461182a565b61062f565b005b34801561026757600080fd5b506008546101de565b34801561027c57600080fd5b5061025961028b366004611854565b610749565b34801561029c57600080fd5b506101de6102ab36600461182a565b61077a565b3480156102bc57600080fd5b50610259610810565b3480156102d157600080fd5b506102596102e0366004611854565b6108ab565b3480156102f157600080fd5b506101de610300366004611792565b6108c6565b34801561031157600080fd5b50610221610320366004611792565b610959565b34801561033157600080fd5b506101de610340366004611890565b6109b9565b34801561035157600080fd5b50610259610a3f565b34801561036657600080fd5b50600a546001600160a01b0316610221565b34801561038457600080fd5b50610259610393366004611957565b610a53565b3480156103a457600080fd5b506101c0610aa9565b3480156103b957600080fd5b506102596103c8366004611792565b610ab8565b3480156103d957600080fd5b506102596103e836600461199e565b610ac5565b3480156103f957600080fd5b506102596104083660046119da565b610ad0565b34801561041957600080fd5b506101c0610428366004611792565b610b08565b61025961043b366004611a56565b610ba1565b34801561044c57600080fd5b5061018b61045b366004611aad565b6001600160a01b03918216600090815260056020908152604080832093909416825291909152205460ff1690565b34801561049557600080fd5b506102596104a4366004611890565b610c5e565b60006001600160e01b0319821663780e9d6360e01b14806104ce57506104ce82610cd7565b92915050565b6000818152600c602052604090208054606091906104f190611ae0565b80601f016020809104026020016040519081016040528092919081815260200182805461051d90611ae0565b801561056a5780601f1061053f5761010080835404028352916020019161056a565b820191906000526020600020905b81548152906001019060200180831161054d57829003601f168201915b50505050509050919050565b60606000805461058590611ae0565b80601f01602080910402602001604051908101604052809291908181526020018280546105b190611ae0565b80156105fe5780601f106105d3576101008083540402835291602001916105fe565b820191906000526020600020905b8154815290600101906020018083116105e157829003601f168201915b5050505050905090565b600061061382610d27565b506000908152600460205260409020546001600160a01b031690565b600061063a82610959565b9050806001600160a01b0316836001600160a01b0316036106ac5760405162461bcd60e51b815260206004820152602160248201527f4552433732313a20617070726f76616c20746f2063757272656e74206f776e656044820152603960f91b60648201526084015b60405180910390fd5b336001600160a01b03821614806106c857506106c8813361045b565b61073a5760405162461bcd60e51b815260206004820152603e60248201527f4552433732313a20617070726f76652063616c6c6572206973206e6f7420746f60448201527f6b656e206f776e6572206e6f7220617070726f76656420666f7220616c6c000060648201526084016106a3565b6107448383610d86565b505050565b6107533382610df4565b61076f5760405162461bcd60e51b81526004016106a390611b1a565b610744838383610e73565b6000610785836109b9565b82106107e75760405162461bcd60e51b815260206004820152602b60248201527f455243373231456e756d657261626c653a206f776e657220696e646578206f7560448201526a74206f6620626f756e647360a81b60648201526084016106a3565b506001600160a01b03919091166000908152600660209081526040808320938352929052205490565b61081861101a565b6000471161085b5760405162461bcd60e51b815260206004820152601060248201526f2737ba1032b737bab3b41032ba3432b960811b60448201526064016106a3565b600061086f600a546001600160a01b031690565b6040519091506001600160a01b038216904780156108fc02916000818181858888f193505050501580156108a7573d6000803e3d6000fd5b5050565b61074483838360405180602001604052806000815250610ad0565b60006108d160085490565b82106109345760405162461bcd60e51b815260206004820152602c60248201527f455243373231456e756d657261626c653a20676c6f62616c20696e646578206f60448201526b7574206f6620626f756e647360a01b60648201526084016106a3565b6008828154811061094757610947611b68565b90600052602060002001549050919050565b6000818152600260205260408120546001600160a01b0316806104ce5760405162461bcd60e51b8152602060048201526018602482015277115490cdcc8c4e881a5b9d985b1a59081d1bdad95b88125160421b60448201526064016106a3565b60006001600160a01b038216610a235760405162461bcd60e51b815260206004820152602960248201527f4552433732313a2061646472657373207a65726f206973206e6f7420612076616044820152683634b21037bbb732b960b91b60648201526084016106a3565b506001600160a01b031660009081526003602052604090205490565b610a4761101a565b610a516000611074565b565b6000828152600260205260409020546001600160a01b0316610a7457600080fd5b33610a7e83610959565b6001600160a01b031614610a9157600080fd5b6000828152600c602052604090206107448282611bcc565b60606001805461058590611ae0565b610ac061101a565b600b55565b6108a73383836110c6565b610ada3383610df4565b610af65760405162461bcd60e51b81526004016106a390611b1a565b610b0284848484611194565b50505050565b6060610b1382610d27565b6000610b4f60408051808201909152601781527f68747470733a2f2f6f7274762e746563682f6d6574612f000000000000000000602082015290565b90506000815111610b6f5760405180602001604052806000815250610b9a565b80610b79846111c7565b604051602001610b8a929190611c8c565b6040516020818303038152906040525b9392505050565b600b543414610be55760405162461bcd60e51b815260206004820152601060248201526f2737ba1032b737bab3b41032b43a32b960811b60448201526064016106a3565b650fffffffffff821115610c3b5760405162461bcd60e51b815260206004820152601960248201527f5370617469616c20436f64652052616e6765206578636565640000000000000060448201526064016106a3565b6000828152600c60205260409020610c538282611bcc565b5061074483836112c8565b610c6661101a565b6001600160a01b038116610ccb5760405162461bcd60e51b815260206004820152602660248201527f4f776e61626c653a206e6577206f776e657220697320746865207a65726f206160448201526564647265737360d01b60648201526084016106a3565b610cd481611074565b50565b60006001600160e01b031982166380ac58cd60e01b1480610d0857506001600160e01b03198216635b5e139f60e01b145b806104ce57506301ffc9a760e01b6001600160e01b03198316146104ce565b6000818152600260205260409020546001600160a01b0316610cd45760405162461bcd60e51b8152602060048201526018602482015277115490cdcc8c4e881a5b9d985b1a59081d1bdad95b88125160421b60448201526064016106a3565b600081815260046020526040902080546001600160a01b0319166001600160a01b0384169081179091558190610dbb82610959565b6001600160a01b03167f8c5be1e5ebec7d5bd14f71427d1e84f3dd0314c0f7b2291e5b200ac8c7c3b92560405160405180910390a45050565b600080610e0083610959565b9050806001600160a01b0316846001600160a01b03161480610e4757506001600160a01b0380821660009081526005602090815260408083209388168352929052205460ff165b80610e6b5750836001600160a01b0316610e6084610608565b6001600160a01b0316145b949350505050565b826001600160a01b0316610e8682610959565b6001600160a01b031614610eea5760405162461bcd60e51b815260206004820152602560248201527f4552433732313a207472616e736665722066726f6d20696e636f72726563742060448201526437bbb732b960d91b60648201526084016106a3565b6001600160a01b038216610f4c5760405162461bcd60e51b8152602060048201526024808201527f4552433732313a207472616e7366657220746f20746865207a65726f206164646044820152637265737360e01b60648201526084016106a3565b610f57838383611416565b610f62600082610d86565b6001600160a01b0383166000908152600360205260408120805460019290610f8b908490611cd1565b90915550506001600160a01b0382166000908152600360205260408120805460019290610fb9908490611ce4565b909155505060008181526002602052604080822080546001600160a01b0319166001600160a01b0386811691821790925591518493918716917fddf252ad1be2c89b69c2b068fc378daa952ba7f163c4a11628f55a4df523b3ef91a4505050565b600a546001600160a01b03163314610a515760405162461bcd60e51b815260206004820181905260248201527f4f776e61626c653a2063616c6c6572206973206e6f7420746865206f776e657260448201526064016106a3565b600a80546001600160a01b038381166001600160a01b0319831681179093556040519116919082907f8be0079c531659141344cd1fd0a4f28419497f9722a3daafe3b4186f6b6457e090600090a35050565b816001600160a01b0316836001600160a01b0316036111275760405162461bcd60e51b815260206004820152601960248201527f4552433732313a20617070726f766520746f2063616c6c65720000000000000060448201526064016106a3565b6001600160a01b03838116600081815260056020908152604080832094871680845294825291829020805460ff191686151590811790915591519182527f17307eab39ab6107e8899845ad3d59bd9653f200f220920489ca2b5937696c31910160405180910390a3505050565b61119f848484610e73565b6111ab848484846114ce565b610b025760405162461bcd60e51b81526004016106a390611cf7565b6060816000036111ee5750506040805180820190915260018152600360fc1b602082015290565b8160005b8115611218578061120281611d49565b91506112119050600a83611d78565b91506111f2565b60008167ffffffffffffffff811115611233576112336118ab565b6040519080825280601f01601f19166020018201604052801561125d576020820181803683370190505b5090505b8415610e6b57611272600183611cd1565b915061127f600a86611d8c565b61128a906030611ce4565b60f81b81838151811061129f5761129f611b68565b60200101906001600160f81b031916908160001a9053506112c1600a86611d78565b9450611261565b6001600160a01b03821661131e5760405162461bcd60e51b815260206004820181905260248201527f4552433732313a206d696e7420746f20746865207a65726f206164647265737360448201526064016106a3565b6000818152600260205260409020546001600160a01b0316156113835760405162461bcd60e51b815260206004820152601c60248201527f4552433732313a20746f6b656e20616c7265616479206d696e7465640000000060448201526064016106a3565b61138f60008383611416565b6001600160a01b03821660009081526003602052604081208054600192906113b8908490611ce4565b909155505060008181526002602052604080822080546001600160a01b0319166001600160a01b03861690811790915590518392907fddf252ad1be2c89b69c2b068fc378daa952ba7f163c4a11628f55a4df523b3ef908290a45050565b6001600160a01b0383166114715761146c81600880546000838152600960205260408120829055600182018355919091527ff3f7a9fe364faab93b216da50a3214154f22a0a2b415b23a84c8169e8b636ee30155565b611494565b816001600160a01b0316836001600160a01b0316146114945761149483826115cf565b6001600160a01b0382166114ab576107448161166c565b826001600160a01b0316826001600160a01b03161461074457610744828261171b565b60006001600160a01b0384163b156115c457604051630a85bd0160e11b81526001600160a01b0385169063150b7a0290611512903390899088908890600401611da0565b6020604051808303816000875af192505050801561154d575060408051601f3d908101601f1916820190925261154a91810190611ddd565b60015b6115aa573d80801561157b576040519150601f19603f3d011682016040523d82523d6000602084013e611580565b606091505b5080516000036115a25760405162461bcd60e51b81526004016106a390611cf7565b805181602001fd5b6001600160e01b031916630a85bd0160e11b149050610e6b565b506001949350505050565b600060016115dc846109b9565b6115e69190611cd1565b600083815260076020526040902054909150808214611639576001600160a01b03841660009081526006602090815260408083208584528252808320548484528184208190558352600790915290208190555b5060009182526007602090815260408084208490556001600160a01b039094168352600681528383209183525290812055565b60085460009061167e90600190611cd1565b600083815260096020526040812054600880549394509092849081106116a6576116a6611b68565b9060005260206000200154905080600883815481106116c7576116c7611b68565b60009182526020808320909101929092558281526009909152604080822084905585825281205560088054806116ff576116ff611dfa565b6001900381819060005260206000200160009055905550505050565b6000611726836109b9565b6001600160a01b039093166000908152600660209081526040808320868452825280832085905593825260079052919091209190915550565b6001600160e01b031981168114610cd457600080fd5b60006020828403121561178757600080fd5b8135610b9a8161175f565b6000602082840312156117a457600080fd5b5035919050565b60005b838110156117c65781810151838201526020016117ae565b50506000910152565b600081518084526117e78160208601602086016117ab565b601f01601f19169290920160200192915050565b602081526000610b9a60208301846117cf565b80356001600160a01b038116811461182557600080fd5b919050565b6000806040838503121561183d57600080fd5b6118468361180e565b946020939093013593505050565b60008060006060848603121561186957600080fd5b6118728461180e565b92506118806020850161180e565b9150604084013590509250925092565b6000602082840312156118a257600080fd5b610b9a8261180e565b634e487b7160e01b600052604160045260246000fd5b600067ffffffffffffffff808411156118dc576118dc6118ab565b604051601f8501601f19908116603f01168101908282118183101715611904576119046118ab565b8160405280935085815286868601111561191d57600080fd5b858560208301376000602087830101525050509392505050565b600082601f83011261194857600080fd5b610b9a838335602085016118c1565b6000806040838503121561196a57600080fd5b82359150602083013567ffffffffffffffff81111561198857600080fd5b61199485828601611937565b9150509250929050565b600080604083850312156119b157600080fd5b6119ba8361180e565b9150602083013580151581146119cf57600080fd5b809150509250929050565b600080600080608085870312156119f057600080fd5b6119f98561180e565b9350611a076020860161180e565b925060408501359150606085013567ffffffffffffffff811115611a2a57600080fd5b8501601f81018713611a3b57600080fd5b611a4a878235602084016118c1565b91505092959194509250565b600080600060608486031215611a6b57600080fd5b611a748461180e565b925060208401359150604084013567ffffffffffffffff811115611a9757600080fd5b611aa386828701611937565b9150509250925092565b60008060408385031215611ac057600080fd5b611ac98361180e565b9150611ad76020840161180e565b90509250929050565b600181811c90821680611af457607f821691505b602082108103611b1457634e487b7160e01b600052602260045260246000fd5b50919050565b6020808252602e908201527f4552433732313a2063616c6c6572206973206e6f7420746f6b656e206f776e6560408201526d1c881b9bdc88185c1c1c9bdd995960921b606082015260800190565b634e487b7160e01b600052603260045260246000fd5b601f82111561074457600081815260208120601f850160051c81016020861015611ba55750805b601f850160051c820191505b81811015611bc457828155600101611bb1565b505050505050565b815167ffffffffffffffff811115611be657611be66118ab565b611bfa81611bf48454611ae0565b84611b7e565b602080601f831160018114611c2f5760008415611c175750858301515b600019600386901b1c1916600185901b178555611bc4565b600085815260208120601f198616915b82811015611c5e57888601518255948401946001909101908401611c3f565b5085821015611c7c5787850151600019600388901b60f8161c191681555b5050505050600190811b01905550565b60008351611c9e8184602088016117ab565b835190830190611cb28183602088016117ab565b01949350505050565b634e487b7160e01b600052601160045260246000fd5b818103818111156104ce576104ce611cbb565b808201808211156104ce576104ce611cbb565b60208082526032908201527f4552433732313a207472616e7366657220746f206e6f6e20455243373231526560408201527131b2b4bb32b91034b6b83632b6b2b73a32b960711b606082015260800190565b600060018201611d5b57611d5b611cbb565b5060010190565b634e487b7160e01b600052601260045260246000fd5b600082611d8757611d87611d62565b500490565b600082611d9b57611d9b611d62565b500690565b6001600160a01b0385811682528416602082015260408101839052608060608201819052600090611dd3908301846117cf565b9695505050505050565b600060208284031215611def57600080fd5b8151610b9a8161175f565b634e487b7160e01b600052603160045260246000fdfea264697066735822122027393ab87856387694eee6c9397a4a178f6f9b0f7ecb416c6f715a879a8ecdd364736f6c63430008110033",
    "sourcePath": "c:/Users/oho_s/repo/orthoverse-contracts/contracts/PNSRegistry.sol",
    "compiler": {
        "name": "solc",
        "version": "0.8.17+commit.8df45f5f"
    },
    "functionHashes": {
        "approve(address,uint256)": "095ea7b3",
        "balanceOf(address)": "70a08231",
        "changeUrl(uint256,string)": "91132d8b",
        "getApproved(uint256)": "081812fc",
        "getInitialPrice()": "06f660ef",
        "getRecord(uint256)": "03e9e609",
        "isApprovedForAll(address,address)": "e985e9c5",
        "mint(address,uint256,string)": "d3fc9864",
        "name()": "06fdde03",
        "owner()": "8da5cb5b",
        "ownerOf(uint256)": "6352211e",
        "renounceOwnership()": "715018a6",
        "safeTransferFrom(address,address,uint256)": "42842e0e",
        "safeTransferFrom(address,address,uint256,bytes)": "b88d4fde",
        "setApprovalForAll(address,bool)": "a22cb465",
        "setInitialPrice(uint256)": "9f4ba0ee",
        "supportsInterface(bytes4)": "01ffc9a7",
        "symbol()": "95d89b41",
        "tokenByIndex(uint256)": "4f6ccce7",
        "tokenOfOwnerByIndex(address,uint256)": "2f745c59",
        "tokenURI(uint256)": "c87b56dd",
        "totalSupply()": "18160ddd",
        "transferFrom(address,address,uint256)": "23b872dd",
        "transferOwnership(address)": "f2fde38b",
        "withdraw()": "3ccfd60b"
    },
    "gasEstimates": {
        "creation": {
            "codeDepositCost": "1550000",
            "executionCost": "infinite",
            "totalCost": "infinite"
        },
        "external": {
            "approve(address,uint256)": "infinite",
            "balanceOf(address)": "2634",
            "changeUrl(uint256,string)": "infinite",
            "getApproved(uint256)": "4836",
            "getInitialPrice()": "2349",
            "getRecord(uint256)": "infinite",
            "isApprovedForAll(address,address)": "infinite",
            "mint(address,uint256,string)": "infinite",
            "name()": "infinite",
            "owner()": "2420",
            "ownerOf(uint256)": "2561",
            "renounceOwnership()": "infinite",
            "safeTransferFrom(address,address,uint256)": "infinite",
            "safeTransferFrom(address,address,uint256,bytes)": "infinite",
            "setApprovalForAll(address,bool)": "26750",
            "setInitialPrice(uint256)": "24533",
            "supportsInterface(bytes4)": "infinite",
            "symbol()": "infinite",
            "tokenByIndex(uint256)": "6848",
            "tokenOfOwnerByIndex(address,uint256)": "4997",
            "tokenURI(uint256)": "infinite",
            "totalSupply()": "2315",
            "transferFrom(address,address,uint256)": "infinite",
            "transferOwnership(address)": "28446",
            "withdraw()": "infinite"
        },
        "internal": {
            "_baseURI()": "infinite"
        }
    }
}